{
	"mapping-contract.sol": {
		"learnMapping": {
			"abi": [
				{
					"inputs": [
						{
							"internalType": "uint256",
							"name": "id",
							"type": "uint256"
						},
						{
							"internalType": "string",
							"name": "title",
							"type": "string"
						},
						{
							"internalType": "string",
							"name": "director",
							"type": "string"
						}
					],
					"name": "addMovie",
					"outputs": [],
					"stateMutability": "nonpayable",
					"type": "function"
				},
				{
					"inputs": [
						{
							"internalType": "uint256",
							"name": "id",
							"type": "uint256"
						},
						{
							"internalType": "string",
							"name": "title",
							"type": "string"
						},
						{
							"internalType": "string",
							"name": "director",
							"type": "string"
						}
					],
					"name": "addMyMovie",
					"outputs": [],
					"stateMutability": "nonpayable",
					"type": "function"
				},
				{
					"inputs": [
						{
							"internalType": "address",
							"name": "_addr",
							"type": "address"
						}
					],
					"name": "getAddress",
					"outputs": [
						{
							"internalType": "uint256",
							"name": "",
							"type": "uint256"
						}
					],
					"stateMutability": "view",
					"type": "function"
				},
				{
					"inputs": [
						{
							"internalType": "address",
							"name": "",
							"type": "address"
						}
					],
					"name": "myMap",
					"outputs": [
						{
							"internalType": "uint256",
							"name": "",
							"type": "uint256"
						}
					],
					"stateMutability": "view",
					"type": "function"
				},
				{
					"inputs": [
						{
							"internalType": "address",
							"name": "",
							"type": "address"
						},
						{
							"internalType": "uint256",
							"name": "",
							"type": "uint256"
						}
					],
					"name": "myMovie",
					"outputs": [
						{
							"internalType": "string",
							"name": "title",
							"type": "string"
						},
						{
							"internalType": "string",
							"name": "director",
							"type": "string"
						}
					],
					"stateMutability": "view",
					"type": "function"
				},
				{
					"inputs": [
						{
							"internalType": "address",
							"name": "_addr",
							"type": "address"
						}
					],
					"name": "remove",
					"outputs": [],
					"stateMutability": "nonpayable",
					"type": "function"
				},
				{
					"inputs": [
						{
							"internalType": "address",
							"name": "_addr",
							"type": "address"
						},
						{
							"internalType": "uint256",
							"name": "_i",
							"type": "uint256"
						}
					],
					"name": "set",
					"outputs": [],
					"stateMutability": "nonpayable",
					"type": "function"
				}
			],
			"devdoc": {
				"kind": "dev",
				"methods": {},
				"version": 1
			},
			"evm": {
				"assembly": "    /* \"mapping-contract.sol\":460:2701  contract learnMapping {... */\n  mstore(0x40, 0x80)\n  callvalue\n  dup1\n  iszero\n  tag_1\n  jumpi\n  0x00\n  dup1\n  revert\ntag_1:\n  pop\n  dataSize(sub_0)\n  dup1\n  dataOffset(sub_0)\n  0x00\n  codecopy\n  0x00\n  return\nstop\n\nsub_0: assembly {\n        /* \"mapping-contract.sol\":460:2701  contract learnMapping {... */\n      mstore(0x40, 0x80)\n      callvalue\n      dup1\n      iszero\n      tag_1\n      jumpi\n      0x00\n      dup1\n      revert\n    tag_1:\n      pop\n      jumpi(tag_2, lt(calldatasize, 0x04))\n      shr(0xe0, calldataload(0x00))\n      dup1\n      0x3825d828\n      gt\n      tag_10\n      jumpi\n      dup1\n      0x3825d828\n      eq\n      tag_6\n      jumpi\n      dup1\n      0x87eb54fe\n      eq\n      tag_7\n      jumpi\n      dup1\n      0xae22c57d\n      eq\n      tag_8\n      jumpi\n      dup1\n      0xf40f48c9\n      eq\n      tag_9\n      jumpi\n      jump(tag_2)\n    tag_10:\n      dup1\n      0x11f72990\n      eq\n      tag_3\n      jumpi\n      dup1\n      0x27cbd529\n      eq\n      tag_4\n      jumpi\n      dup1\n      0x29092d0e\n      eq\n      tag_5\n      jumpi\n    tag_2:\n      0x00\n      dup1\n      revert\n        /* \"mapping-contract.sol\":1785:1842  mapping(address => mapping(uint => Movie)) public myMovie */\n    tag_3:\n      tag_11\n      0x04\n      dup1\n      calldatasize\n      sub\n      dup2\n      add\n      swap1\n      tag_12\n      swap2\n      swap1\n      tag_13\n      jump\t// in\n    tag_12:\n      tag_14\n      jump\t// in\n    tag_11:\n      mload(0x40)\n      tag_15\n      swap3\n      swap2\n      swap1\n      tag_16\n      jump\t// in\n    tag_15:\n      mload(0x40)\n      dup1\n      swap2\n      sub\n      swap1\n      return\n        /* \"mapping-contract.sol\":571:608  mapping(address => uint) public myMap */\n    tag_4:\n      tag_17\n      0x04\n      dup1\n      calldatasize\n      sub\n      dup2\n      add\n      swap1\n      tag_18\n      swap2\n      swap1\n      tag_19\n      jump\t// in\n    tag_18:\n      tag_20\n      jump\t// in\n    tag_17:\n      mload(0x40)\n      tag_21\n      swap2\n      swap1\n      tag_22\n      jump\t// in\n    tag_21:\n      mload(0x40)\n      dup1\n      swap2\n      sub\n      swap1\n      return\n        /* \"mapping-contract.sol\":902:976  function remove(address _addr) public {... */\n    tag_5:\n      tag_23\n      0x04\n      dup1\n      calldatasize\n      sub\n      dup2\n      add\n      swap1\n      tag_24\n      swap2\n      swap1\n      tag_19\n      jump\t// in\n    tag_24:\n      tag_25\n      jump\t// in\n    tag_23:\n      stop\n        /* \"mapping-contract.sol\":805:883  function set(address _addr, uint _i) public {... */\n    tag_6:\n      tag_26\n      0x04\n      dup1\n      calldatasize\n      sub\n      dup2\n      add\n      swap1\n      tag_27\n      swap2\n      swap1\n      tag_13\n      jump\t// in\n    tag_27:\n      tag_28\n      jump\t// in\n    tag_26:\n      stop\n        /* \"mapping-contract.sol\":2075:2375  function addMyMovie(uint id, string memory title, string memory director) public {... */\n    tag_7:\n      tag_29\n      0x04\n      dup1\n      calldatasize\n      sub\n      dup2\n      add\n      swap1\n      tag_30\n      swap2\n      swap1\n      tag_31\n      jump\t// in\n    tag_30:\n      tag_32\n      jump\t// in\n    tag_29:\n      stop\n        /* \"mapping-contract.sol\":619:717  function getAddress(address _addr) public view returns (uint) {... */\n    tag_8:\n      tag_33\n      0x04\n      dup1\n      calldatasize\n      sub\n      dup2\n      add\n      swap1\n      tag_34\n      swap2\n      swap1\n      tag_19\n      jump\t// in\n    tag_34:\n      tag_35\n      jump\t// in\n    tag_33:\n      mload(0x40)\n      tag_36\n      swap2\n      swap1\n      tag_22\n      jump\t// in\n    tag_36:\n      mload(0x40)\n      dup1\n      swap2\n      sub\n      swap1\n      return\n        /* \"mapping-contract.sol\":1926:2061  function addMovie(uint id, string memory title, string memory director) public {... */\n    tag_9:\n      tag_37\n      0x04\n      dup1\n      calldatasize\n      sub\n      dup2\n      add\n      swap1\n      tag_38\n      swap2\n      swap1\n      tag_31\n      jump\t// in\n    tag_38:\n      tag_39\n      jump\t// in\n    tag_37:\n      stop\n        /* \"mapping-contract.sol\":1785:1842  mapping(address => mapping(uint => Movie)) public myMovie */\n    tag_14:\n      mstore(0x20, 0x02)\n      dup2\n      0x00\n      mstore\n      mstore(0x20, keccak256(0x00, 0x40))\n      dup1\n      0x00\n      mstore\n      keccak256(0x00, 0x40)\n      0x00\n      swap2\n      pop\n      swap2\n      pop\n      pop\n      dup1\n      0x00\n      add\n      dup1\n      sload\n      tag_40\n      swap1\n      tag_41\n      jump\t// in\n    tag_40:\n      dup1\n      0x1f\n      add\n      0x20\n      dup1\n      swap2\n      div\n      mul\n      0x20\n      add\n      mload(0x40)\n      swap1\n      dup2\n      add\n      0x40\n      mstore\n      dup1\n      swap3\n      swap2\n      swap1\n      dup2\n      dup2\n      mstore\n      0x20\n      add\n      dup3\n      dup1\n      sload\n      tag_42\n      swap1\n      tag_41\n      jump\t// in\n    tag_42:\n      dup1\n      iszero\n      tag_43\n      jumpi\n      dup1\n      0x1f\n      lt\n      tag_44\n      jumpi\n      0x0100\n      dup1\n      dup4\n      sload\n      div\n      mul\n      dup4\n      mstore\n      swap2\n      0x20\n      add\n      swap2\n      jump(tag_43)\n    tag_44:\n      dup3\n      add\n      swap2\n      swap1\n      0x00\n      mstore\n      keccak256(0x00, 0x20)\n      swap1\n    tag_45:\n      dup2\n      sload\n      dup2\n      mstore\n      swap1\n      0x01\n      add\n      swap1\n      0x20\n      add\n      dup1\n      dup4\n      gt\n      tag_45\n      jumpi\n      dup3\n      swap1\n      sub\n      0x1f\n      and\n      dup3\n      add\n      swap2\n    tag_43:\n      pop\n      pop\n      pop\n      pop\n      pop\n      swap1\n      dup1\n      0x01\n      add\n      dup1\n      sload\n      tag_46\n      swap1\n      tag_41\n      jump\t// in\n    tag_46:\n      dup1\n      0x1f\n      add\n      0x20\n      dup1\n      swap2\n      div\n      mul\n      0x20\n      add\n      mload(0x40)\n      swap1\n      dup2\n      add\n      0x40\n      mstore\n      dup1\n      swap3\n      swap2\n      swap1\n      dup2\n      dup2\n      mstore\n      0x20\n      add\n      dup3\n      dup1\n      sload\n      tag_47\n      swap1\n      tag_41\n      jump\t// in\n    tag_47:\n      dup1\n      iszero\n      tag_48\n      jumpi\n      dup1\n      0x1f\n      lt\n      tag_49\n      jumpi\n      0x0100\n      dup1\n      dup4\n      sload\n      div\n      mul\n      dup4\n      mstore\n      swap2\n      0x20\n      add\n      swap2\n      jump(tag_48)\n    tag_49:\n      dup3\n      add\n      swap2\n      swap1\n      0x00\n      mstore\n      keccak256(0x00, 0x20)\n      swap1\n    tag_50:\n      dup2\n      sload\n      dup2\n      mstore\n      swap1\n      0x01\n      add\n      swap1\n      0x20\n      add\n      dup1\n      dup4\n      gt\n      tag_50\n      jumpi\n      dup3\n      swap1\n      sub\n      0x1f\n      and\n      dup3\n      add\n      swap2\n    tag_48:\n      pop\n      pop\n      pop\n      pop\n      pop\n      swap1\n      pop\n      dup3\n      jump\t// out\n        /* \"mapping-contract.sol\":571:608  mapping(address => uint) public myMap */\n    tag_20:\n      mstore(0x20, 0x00)\n      dup1\n      0x00\n      mstore\n      keccak256(0x00, 0x40)\n      0x00\n      swap2\n      pop\n      swap1\n      pop\n      sload\n      dup2\n      jump\t// out\n        /* \"mapping-contract.sol\":902:976  function remove(address _addr) public {... */\n    tag_25:\n        /* \"mapping-contract.sol\":957:962  myMap */\n      0x00\n        /* \"mapping-contract.sol\":957:969  myMap[_addr] */\n      dup1\n        /* \"mapping-contract.sol\":963:968  _addr */\n      dup3\n        /* \"mapping-contract.sol\":957:969  myMap[_addr] */\n      0xffffffffffffffffffffffffffffffffffffffff\n      and\n      0xffffffffffffffffffffffffffffffffffffffff\n      and\n      dup2\n      mstore\n      0x20\n      add\n      swap1\n      dup2\n      mstore\n      0x20\n      add\n      0x00\n      keccak256\n        /* \"mapping-contract.sol\":950:969  delete myMap[_addr] */\n      0x00\n      swap1\n      sstore\n        /* \"mapping-contract.sol\":902:976  function remove(address _addr) public {... */\n      pop\n      jump\t// out\n        /* \"mapping-contract.sol\":805:883  function set(address _addr, uint _i) public {... */\n    tag_28:\n        /* \"mapping-contract.sol\":874:876  _i */\n      dup1\n        /* \"mapping-contract.sol\":859:864  myMap */\n      0x00\n        /* \"mapping-contract.sol\":859:871  myMap[_addr] */\n      dup1\n        /* \"mapping-contract.sol\":865:870  _addr */\n      dup5\n        /* \"mapping-contract.sol\":859:871  myMap[_addr] */\n      0xffffffffffffffffffffffffffffffffffffffff\n      and\n      0xffffffffffffffffffffffffffffffffffffffff\n      and\n      dup2\n      mstore\n      0x20\n      add\n      swap1\n      dup2\n      mstore\n      0x20\n      add\n      0x00\n      keccak256\n        /* \"mapping-contract.sol\":859:876  myMap[_addr] = _i */\n      dup2\n      swap1\n      sstore\n      pop\n        /* \"mapping-contract.sol\":805:883  function set(address _addr, uint _i) public {... */\n      pop\n      pop\n      jump\t// out\n        /* \"mapping-contract.sol\":2075:2375  function addMyMovie(uint id, string memory title, string memory director) public {... */\n    tag_32:\n        /* \"mapping-contract.sol\":2196:2218  Movie(title, director) */\n      mload(0x40)\n      dup1\n      0x40\n      add\n      0x40\n      mstore\n      dup1\n        /* \"mapping-contract.sol\":2202:2207  title */\n      dup4\n        /* \"mapping-contract.sol\":2196:2218  Movie(title, director) */\n      dup2\n      mstore\n      0x20\n      add\n        /* \"mapping-contract.sol\":2209:2217  director */\n      dup3\n        /* \"mapping-contract.sol\":2196:2218  Movie(title, director) */\n      dup2\n      mstore\n      pop\n        /* \"mapping-contract.sol\":2170:2177  myMovie */\n      0x02\n        /* \"mapping-contract.sol\":2170:2189  myMovie[msg.sender] */\n      0x00\n        /* \"mapping-contract.sol\":2178:2188  msg.sender */\n      caller\n        /* \"mapping-contract.sol\":2170:2189  myMovie[msg.sender] */\n      0xffffffffffffffffffffffffffffffffffffffff\n      and\n      0xffffffffffffffffffffffffffffffffffffffff\n      and\n      dup2\n      mstore\n      0x20\n      add\n      swap1\n      dup2\n      mstore\n      0x20\n      add\n      0x00\n      keccak256\n        /* \"mapping-contract.sol\":2170:2193  myMovie[msg.sender][id] */\n      0x00\n        /* \"mapping-contract.sol\":2190:2192  id */\n      dup6\n        /* \"mapping-contract.sol\":2170:2193  myMovie[msg.sender][id] */\n      dup2\n      mstore\n      0x20\n      add\n      swap1\n      dup2\n      mstore\n      0x20\n      add\n      0x00\n      keccak256\n        /* \"mapping-contract.sol\":2170:2218  myMovie[msg.sender][id] = Movie(title, director) */\n      0x00\n      dup3\n      add\n      mload\n      dup2\n      0x00\n      add\n      swap1\n      dup1\n      mload\n      swap1\n      0x20\n      add\n      swap1\n      tag_54\n      swap3\n      swap2\n      swap1\n      tag_55\n      jump\t// in\n    tag_54:\n      pop\n      0x20\n      dup3\n      add\n      mload\n      dup2\n      0x01\n      add\n      swap1\n      dup1\n      mload\n      swap1\n      0x20\n      add\n      swap1\n      tag_56\n      swap3\n      swap2\n      swap1\n      tag_55\n      jump\t// in\n    tag_56:\n      pop\n      swap1\n      pop\n      pop\n        /* \"mapping-contract.sol\":2075:2375  function addMyMovie(uint id, string memory title, string memory director) public {... */\n      pop\n      pop\n      pop\n      jump\t// out\n        /* \"mapping-contract.sol\":619:717  function getAddress(address _addr) public view returns (uint) {... */\n    tag_35:\n        /* \"mapping-contract.sol\":675:679  uint */\n      0x00\n        /* \"mapping-contract.sol\":698:703  myMap */\n      dup1\n        /* \"mapping-contract.sol\":698:710  myMap[_addr] */\n      0x00\n        /* \"mapping-contract.sol\":704:709  _addr */\n      dup4\n        /* \"mapping-contract.sol\":698:710  myMap[_addr] */\n      0xffffffffffffffffffffffffffffffffffffffff\n      and\n      0xffffffffffffffffffffffffffffffffffffffff\n      and\n      dup2\n      mstore\n      0x20\n      add\n      swap1\n      dup2\n      mstore\n      0x20\n      add\n      0x00\n      keccak256\n      sload\n        /* \"mapping-contract.sol\":691:710  return myMap[_addr] */\n      swap1\n      pop\n        /* \"mapping-contract.sol\":619:717  function getAddress(address _addr) public view returns (uint) {... */\n      swap2\n      swap1\n      pop\n      jump\t// out\n        /* \"mapping-contract.sol\":1926:2061  function addMovie(uint id, string memory title, string memory director) public {... */\n    tag_39:\n        /* \"mapping-contract.sol\":2031:2053  Movie(title, director) */\n      mload(0x40)\n      dup1\n      0x40\n      add\n      0x40\n      mstore\n      dup1\n        /* \"mapping-contract.sol\":2037:2042  title */\n      dup4\n        /* \"mapping-contract.sol\":2031:2053  Movie(title, director) */\n      dup2\n      mstore\n      0x20\n      add\n        /* \"mapping-contract.sol\":2044:2052  director */\n      dup3\n        /* \"mapping-contract.sol\":2031:2053  Movie(title, director) */\n      dup2\n      mstore\n      pop\n        /* \"mapping-contract.sol\":2019:2024  movie */\n      0x01\n        /* \"mapping-contract.sol\":2019:2028  movie[id] */\n      0x00\n        /* \"mapping-contract.sol\":2025:2027  id */\n      dup6\n        /* \"mapping-contract.sol\":2019:2028  movie[id] */\n      dup2\n      mstore\n      0x20\n      add\n      swap1\n      dup2\n      mstore\n      0x20\n      add\n      0x00\n      keccak256\n        /* \"mapping-contract.sol\":2019:2053  movie[id] = Movie(title, director) */\n      0x00\n      dup3\n      add\n      mload\n      dup2\n      0x00\n      add\n      swap1\n      dup1\n      mload\n      swap1\n      0x20\n      add\n      swap1\n      tag_59\n      swap3\n      swap2\n      swap1\n      tag_55\n      jump\t// in\n    tag_59:\n      pop\n      0x20\n      dup3\n      add\n      mload\n      dup2\n      0x01\n      add\n      swap1\n      dup1\n      mload\n      swap1\n      0x20\n      add\n      swap1\n      tag_60\n      swap3\n      swap2\n      swap1\n      tag_55\n      jump\t// in\n    tag_60:\n      pop\n      swap1\n      pop\n      pop\n        /* \"mapping-contract.sol\":1926:2061  function addMovie(uint id, string memory title, string memory director) public {... */\n      pop\n      pop\n      pop\n      jump\t// out\n    tag_55:\n      dup3\n      dup1\n      sload\n      tag_61\n      swap1\n      tag_41\n      jump\t// in\n    tag_61:\n      swap1\n      0x00\n      mstore\n      keccak256(0x00, 0x20)\n      swap1\n      0x1f\n      add\n      0x20\n      swap1\n      div\n      dup2\n      add\n      swap3\n      dup3\n      tag_63\n      jumpi\n      0x00\n      dup6\n      sstore\n      jump(tag_62)\n    tag_63:\n      dup3\n      0x1f\n      lt\n      tag_64\n      jumpi\n      dup1\n      mload\n      not(0xff)\n      and\n      dup4\n      dup1\n      add\n      or\n      dup6\n      sstore\n      jump(tag_62)\n    tag_64:\n      dup3\n      dup1\n      add\n      0x01\n      add\n      dup6\n      sstore\n      dup3\n      iszero\n      tag_62\n      jumpi\n      swap2\n      dup3\n      add\n    tag_65:\n      dup3\n      dup2\n      gt\n      iszero\n      tag_66\n      jumpi\n      dup3\n      mload\n      dup3\n      sstore\n      swap2\n      0x20\n      add\n      swap2\n      swap1\n      0x01\n      add\n      swap1\n      jump(tag_65)\n    tag_66:\n    tag_62:\n      pop\n      swap1\n      pop\n      tag_67\n      swap2\n      swap1\n      tag_68\n      jump\t// in\n    tag_67:\n      pop\n      swap1\n      jump\t// out\n    tag_68:\n    tag_69:\n      dup1\n      dup3\n      gt\n      iszero\n      tag_70\n      jumpi\n      0x00\n      dup2\n      0x00\n      swap1\n      sstore\n      pop\n      0x01\n      add\n      jump(tag_69)\n    tag_70:\n      pop\n      swap1\n      jump\t// out\n        /* \"#utility.yul\":7:419   */\n    tag_72:\n        /* \"#utility.yul\":85:90   */\n      0x00\n        /* \"#utility.yul\":110:176   */\n      tag_74\n        /* \"#utility.yul\":126:175   */\n      tag_75\n        /* \"#utility.yul\":168:174   */\n      dup5\n        /* \"#utility.yul\":126:175   */\n      tag_76\n      jump\t// in\n    tag_75:\n        /* \"#utility.yul\":110:176   */\n      tag_77\n      jump\t// in\n    tag_74:\n        /* \"#utility.yul\":101:176   */\n      swap1\n      pop\n        /* \"#utility.yul\":199:205   */\n      dup3\n        /* \"#utility.yul\":192:197   */\n      dup2\n        /* \"#utility.yul\":185:206   */\n      mstore\n        /* \"#utility.yul\":237:241   */\n      0x20\n        /* \"#utility.yul\":230:235   */\n      dup2\n        /* \"#utility.yul\":226:242   */\n      add\n        /* \"#utility.yul\":275:278   */\n      dup5\n        /* \"#utility.yul\":266:272   */\n      dup5\n        /* \"#utility.yul\":261:264   */\n      dup5\n        /* \"#utility.yul\":257:273   */\n      add\n        /* \"#utility.yul\":254:279   */\n      gt\n        /* \"#utility.yul\":251:363   */\n      iszero\n      tag_78\n      jumpi\n        /* \"#utility.yul\":282:361   */\n      tag_79\n      tag_80\n      jump\t// in\n    tag_79:\n        /* \"#utility.yul\":251:363   */\n    tag_78:\n        /* \"#utility.yul\":372:413   */\n      tag_81\n        /* \"#utility.yul\":406:412   */\n      dup5\n        /* \"#utility.yul\":401:404   */\n      dup3\n        /* \"#utility.yul\":396:399   */\n      dup6\n        /* \"#utility.yul\":372:413   */\n      tag_82\n      jump\t// in\n    tag_81:\n        /* \"#utility.yul\":91:419   */\n      pop\n        /* \"#utility.yul\":7:419   */\n      swap4\n      swap3\n      pop\n      pop\n      pop\n      jump\t// out\n        /* \"#utility.yul\":425:564   */\n    tag_83:\n        /* \"#utility.yul\":471:476   */\n      0x00\n        /* \"#utility.yul\":509:515   */\n      dup2\n        /* \"#utility.yul\":496:516   */\n      calldataload\n        /* \"#utility.yul\":487:516   */\n      swap1\n      pop\n        /* \"#utility.yul\":525:558   */\n      tag_85\n        /* \"#utility.yul\":552:557   */\n      dup2\n        /* \"#utility.yul\":525:558   */\n      tag_86\n      jump\t// in\n    tag_85:\n        /* \"#utility.yul\":425:564   */\n      swap3\n      swap2\n      pop\n      pop\n      jump\t// out\n        /* \"#utility.yul\":584:924   */\n    tag_87:\n        /* \"#utility.yul\":640:645   */\n      0x00\n        /* \"#utility.yul\":689:692   */\n      dup3\n        /* \"#utility.yul\":682:686   */\n      0x1f\n        /* \"#utility.yul\":674:680   */\n      dup4\n        /* \"#utility.yul\":670:687   */\n      add\n        /* \"#utility.yul\":666:693   */\n      slt\n        /* \"#utility.yul\":656:778   */\n      tag_89\n      jumpi\n        /* \"#utility.yul\":697:776   */\n      tag_90\n      tag_91\n      jump\t// in\n    tag_90:\n        /* \"#utility.yul\":656:778   */\n    tag_89:\n        /* \"#utility.yul\":814:820   */\n      dup2\n        /* \"#utility.yul\":801:821   */\n      calldataload\n        /* \"#utility.yul\":839:918   */\n      tag_92\n        /* \"#utility.yul\":914:917   */\n      dup5\n        /* \"#utility.yul\":906:912   */\n      dup3\n        /* \"#utility.yul\":899:903   */\n      0x20\n        /* \"#utility.yul\":891:897   */\n      dup7\n        /* \"#utility.yul\":887:904   */\n      add\n        /* \"#utility.yul\":839:918   */\n      tag_72\n      jump\t// in\n    tag_92:\n        /* \"#utility.yul\":830:918   */\n      swap2\n      pop\n        /* \"#utility.yul\":646:924   */\n      pop\n        /* \"#utility.yul\":584:924   */\n      swap3\n      swap2\n      pop\n      pop\n      jump\t// out\n        /* \"#utility.yul\":930:1069   */\n    tag_93:\n        /* \"#utility.yul\":976:981   */\n      0x00\n        /* \"#utility.yul\":1014:1020   */\n      dup2\n        /* \"#utility.yul\":1001:1021   */\n      calldataload\n        /* \"#utility.yul\":992:1021   */\n      swap1\n      pop\n        /* \"#utility.yul\":1030:1063   */\n      tag_95\n        /* \"#utility.yul\":1057:1062   */\n      dup2\n        /* \"#utility.yul\":1030:1063   */\n      tag_96\n      jump\t// in\n    tag_95:\n        /* \"#utility.yul\":930:1069   */\n      swap3\n      swap2\n      pop\n      pop\n      jump\t// out\n        /* \"#utility.yul\":1075:1404   */\n    tag_19:\n        /* \"#utility.yul\":1134:1140   */\n      0x00\n        /* \"#utility.yul\":1183:1185   */\n      0x20\n        /* \"#utility.yul\":1171:1180   */\n      dup3\n        /* \"#utility.yul\":1162:1169   */\n      dup5\n        /* \"#utility.yul\":1158:1181   */\n      sub\n        /* \"#utility.yul\":1154:1186   */\n      slt\n        /* \"#utility.yul\":1151:1270   */\n      iszero\n      tag_98\n      jumpi\n        /* \"#utility.yul\":1189:1268   */\n      tag_99\n      tag_100\n      jump\t// in\n    tag_99:\n        /* \"#utility.yul\":1151:1270   */\n    tag_98:\n        /* \"#utility.yul\":1309:1310   */\n      0x00\n        /* \"#utility.yul\":1334:1387   */\n      tag_101\n        /* \"#utility.yul\":1379:1386   */\n      dup5\n        /* \"#utility.yul\":1370:1376   */\n      dup3\n        /* \"#utility.yul\":1359:1368   */\n      dup6\n        /* \"#utility.yul\":1355:1377   */\n      add\n        /* \"#utility.yul\":1334:1387   */\n      tag_83\n      jump\t// in\n    tag_101:\n        /* \"#utility.yul\":1324:1387   */\n      swap2\n      pop\n        /* \"#utility.yul\":1280:1397   */\n      pop\n        /* \"#utility.yul\":1075:1404   */\n      swap3\n      swap2\n      pop\n      pop\n      jump\t// out\n        /* \"#utility.yul\":1410:1884   */\n    tag_13:\n        /* \"#utility.yul\":1478:1484   */\n      0x00\n        /* \"#utility.yul\":1486:1492   */\n      dup1\n        /* \"#utility.yul\":1535:1537   */\n      0x40\n        /* \"#utility.yul\":1523:1532   */\n      dup4\n        /* \"#utility.yul\":1514:1521   */\n      dup6\n        /* \"#utility.yul\":1510:1533   */\n      sub\n        /* \"#utility.yul\":1506:1538   */\n      slt\n        /* \"#utility.yul\":1503:1622   */\n      iszero\n      tag_103\n      jumpi\n        /* \"#utility.yul\":1541:1620   */\n      tag_104\n      tag_100\n      jump\t// in\n    tag_104:\n        /* \"#utility.yul\":1503:1622   */\n    tag_103:\n        /* \"#utility.yul\":1661:1662   */\n      0x00\n        /* \"#utility.yul\":1686:1739   */\n      tag_105\n        /* \"#utility.yul\":1731:1738   */\n      dup6\n        /* \"#utility.yul\":1722:1728   */\n      dup3\n        /* \"#utility.yul\":1711:1720   */\n      dup7\n        /* \"#utility.yul\":1707:1729   */\n      add\n        /* \"#utility.yul\":1686:1739   */\n      tag_83\n      jump\t// in\n    tag_105:\n        /* \"#utility.yul\":1676:1739   */\n      swap3\n      pop\n        /* \"#utility.yul\":1632:1749   */\n      pop\n        /* \"#utility.yul\":1788:1790   */\n      0x20\n        /* \"#utility.yul\":1814:1867   */\n      tag_106\n        /* \"#utility.yul\":1859:1866   */\n      dup6\n        /* \"#utility.yul\":1850:1856   */\n      dup3\n        /* \"#utility.yul\":1839:1848   */\n      dup7\n        /* \"#utility.yul\":1835:1857   */\n      add\n        /* \"#utility.yul\":1814:1867   */\n      tag_93\n      jump\t// in\n    tag_106:\n        /* \"#utility.yul\":1804:1867   */\n      swap2\n      pop\n        /* \"#utility.yul\":1759:1877   */\n      pop\n        /* \"#utility.yul\":1410:1884   */\n      swap3\n      pop\n      swap3\n      swap1\n      pop\n      jump\t// out\n        /* \"#utility.yul\":1890:2869   */\n    tag_31:\n        /* \"#utility.yul\":1987:1993   */\n      0x00\n        /* \"#utility.yul\":1995:2001   */\n      dup1\n        /* \"#utility.yul\":2003:2009   */\n      0x00\n        /* \"#utility.yul\":2052:2054   */\n      0x60\n        /* \"#utility.yul\":2040:2049   */\n      dup5\n        /* \"#utility.yul\":2031:2038   */\n      dup7\n        /* \"#utility.yul\":2027:2050   */\n      sub\n        /* \"#utility.yul\":2023:2055   */\n      slt\n        /* \"#utility.yul\":2020:2139   */\n      iszero\n      tag_108\n      jumpi\n        /* \"#utility.yul\":2058:2137   */\n      tag_109\n      tag_100\n      jump\t// in\n    tag_109:\n        /* \"#utility.yul\":2020:2139   */\n    tag_108:\n        /* \"#utility.yul\":2178:2179   */\n      0x00\n        /* \"#utility.yul\":2203:2256   */\n      tag_110\n        /* \"#utility.yul\":2248:2255   */\n      dup7\n        /* \"#utility.yul\":2239:2245   */\n      dup3\n        /* \"#utility.yul\":2228:2237   */\n      dup8\n        /* \"#utility.yul\":2224:2246   */\n      add\n        /* \"#utility.yul\":2203:2256   */\n      tag_93\n      jump\t// in\n    tag_110:\n        /* \"#utility.yul\":2193:2256   */\n      swap4\n      pop\n        /* \"#utility.yul\":2149:2266   */\n      pop\n        /* \"#utility.yul\":2333:2335   */\n      0x20\n        /* \"#utility.yul\":2322:2331   */\n      dup5\n        /* \"#utility.yul\":2318:2336   */\n      add\n        /* \"#utility.yul\":2305:2337   */\n      calldataload\n        /* \"#utility.yul\":2364:2382   */\n      0xffffffffffffffff\n        /* \"#utility.yul\":2356:2362   */\n      dup2\n        /* \"#utility.yul\":2353:2383   */\n      gt\n        /* \"#utility.yul\":2350:2467   */\n      iszero\n      tag_111\n      jumpi\n        /* \"#utility.yul\":2386:2465   */\n      tag_112\n      tag_113\n      jump\t// in\n    tag_112:\n        /* \"#utility.yul\":2350:2467   */\n    tag_111:\n        /* \"#utility.yul\":2491:2554   */\n      tag_114\n        /* \"#utility.yul\":2546:2553   */\n      dup7\n        /* \"#utility.yul\":2537:2543   */\n      dup3\n        /* \"#utility.yul\":2526:2535   */\n      dup8\n        /* \"#utility.yul\":2522:2544   */\n      add\n        /* \"#utility.yul\":2491:2554   */\n      tag_87\n      jump\t// in\n    tag_114:\n        /* \"#utility.yul\":2481:2554   */\n      swap3\n      pop\n        /* \"#utility.yul\":2276:2564   */\n      pop\n        /* \"#utility.yul\":2631:2633   */\n      0x40\n        /* \"#utility.yul\":2620:2629   */\n      dup5\n        /* \"#utility.yul\":2616:2634   */\n      add\n        /* \"#utility.yul\":2603:2635   */\n      calldataload\n        /* \"#utility.yul\":2662:2680   */\n      0xffffffffffffffff\n        /* \"#utility.yul\":2654:2660   */\n      dup2\n        /* \"#utility.yul\":2651:2681   */\n      gt\n        /* \"#utility.yul\":2648:2765   */\n      iszero\n      tag_115\n      jumpi\n        /* \"#utility.yul\":2684:2763   */\n      tag_116\n      tag_113\n      jump\t// in\n    tag_116:\n        /* \"#utility.yul\":2648:2765   */\n    tag_115:\n        /* \"#utility.yul\":2789:2852   */\n      tag_117\n        /* \"#utility.yul\":2844:2851   */\n      dup7\n        /* \"#utility.yul\":2835:2841   */\n      dup3\n        /* \"#utility.yul\":2824:2833   */\n      dup8\n        /* \"#utility.yul\":2820:2842   */\n      add\n        /* \"#utility.yul\":2789:2852   */\n      tag_87\n      jump\t// in\n    tag_117:\n        /* \"#utility.yul\":2779:2852   */\n      swap2\n      pop\n        /* \"#utility.yul\":2574:2862   */\n      pop\n        /* \"#utility.yul\":1890:2869   */\n      swap3\n      pop\n      swap3\n      pop\n      swap3\n      jump\t// out\n        /* \"#utility.yul\":2875:3239   */\n    tag_118:\n        /* \"#utility.yul\":2963:2966   */\n      0x00\n        /* \"#utility.yul\":2991:3030   */\n      tag_120\n        /* \"#utility.yul\":3024:3029   */\n      dup3\n        /* \"#utility.yul\":2991:3030   */\n      tag_121\n      jump\t// in\n    tag_120:\n        /* \"#utility.yul\":3046:3117   */\n      tag_122\n        /* \"#utility.yul\":3110:3116   */\n      dup2\n        /* \"#utility.yul\":3105:3108   */\n      dup6\n        /* \"#utility.yul\":3046:3117   */\n      tag_123\n      jump\t// in\n    tag_122:\n        /* \"#utility.yul\":3039:3117   */\n      swap4\n      pop\n        /* \"#utility.yul\":3126:3178   */\n      tag_124\n        /* \"#utility.yul\":3171:3177   */\n      dup2\n        /* \"#utility.yul\":3166:3169   */\n      dup6\n        /* \"#utility.yul\":3159:3163   */\n      0x20\n        /* \"#utility.yul\":3152:3157   */\n      dup7\n        /* \"#utility.yul\":3148:3164   */\n      add\n        /* \"#utility.yul\":3126:3178   */\n      tag_125\n      jump\t// in\n    tag_124:\n        /* \"#utility.yul\":3203:3232   */\n      tag_126\n        /* \"#utility.yul\":3225:3231   */\n      dup2\n        /* \"#utility.yul\":3203:3232   */\n      tag_127\n      jump\t// in\n    tag_126:\n        /* \"#utility.yul\":3198:3201   */\n      dup5\n        /* \"#utility.yul\":3194:3233   */\n      add\n        /* \"#utility.yul\":3187:3233   */\n      swap2\n      pop\n        /* \"#utility.yul\":2967:3239   */\n      pop\n        /* \"#utility.yul\":2875:3239   */\n      swap3\n      swap2\n      pop\n      pop\n      jump\t// out\n        /* \"#utility.yul\":3245:3363   */\n    tag_128:\n        /* \"#utility.yul\":3332:3356   */\n      tag_130\n        /* \"#utility.yul\":3350:3355   */\n      dup2\n        /* \"#utility.yul\":3332:3356   */\n      tag_131\n      jump\t// in\n    tag_130:\n        /* \"#utility.yul\":3327:3330   */\n      dup3\n        /* \"#utility.yul\":3320:3357   */\n      mstore\n        /* \"#utility.yul\":3245:3363   */\n      pop\n      pop\n      jump\t// out\n        /* \"#utility.yul\":3369:3883   */\n    tag_16:\n        /* \"#utility.yul\":3530:3534   */\n      0x00\n        /* \"#utility.yul\":3568:3570   */\n      0x40\n        /* \"#utility.yul\":3557:3566   */\n      dup3\n        /* \"#utility.yul\":3553:3571   */\n      add\n        /* \"#utility.yul\":3545:3571   */\n      swap1\n      pop\n        /* \"#utility.yul\":3617:3626   */\n      dup2\n        /* \"#utility.yul\":3611:3615   */\n      dup2\n        /* \"#utility.yul\":3607:3627   */\n      sub\n        /* \"#utility.yul\":3603:3604   */\n      0x00\n        /* \"#utility.yul\":3592:3601   */\n      dup4\n        /* \"#utility.yul\":3588:3605   */\n      add\n        /* \"#utility.yul\":3581:3628   */\n      mstore\n        /* \"#utility.yul\":3645:3723   */\n      tag_133\n        /* \"#utility.yul\":3718:3722   */\n      dup2\n        /* \"#utility.yul\":3709:3715   */\n      dup6\n        /* \"#utility.yul\":3645:3723   */\n      tag_118\n      jump\t// in\n    tag_133:\n        /* \"#utility.yul\":3637:3723   */\n      swap1\n      pop\n        /* \"#utility.yul\":3770:3779   */\n      dup2\n        /* \"#utility.yul\":3764:3768   */\n      dup2\n        /* \"#utility.yul\":3760:3780   */\n      sub\n        /* \"#utility.yul\":3755:3757   */\n      0x20\n        /* \"#utility.yul\":3744:3753   */\n      dup4\n        /* \"#utility.yul\":3740:3758   */\n      add\n        /* \"#utility.yul\":3733:3781   */\n      mstore\n        /* \"#utility.yul\":3798:3876   */\n      tag_134\n        /* \"#utility.yul\":3871:3875   */\n      dup2\n        /* \"#utility.yul\":3862:3868   */\n      dup5\n        /* \"#utility.yul\":3798:3876   */\n      tag_118\n      jump\t// in\n    tag_134:\n        /* \"#utility.yul\":3790:3876   */\n      swap1\n      pop\n        /* \"#utility.yul\":3369:3883   */\n      swap4\n      swap3\n      pop\n      pop\n      pop\n      jump\t// out\n        /* \"#utility.yul\":3889:4111   */\n    tag_22:\n        /* \"#utility.yul\":3982:3986   */\n      0x00\n        /* \"#utility.yul\":4020:4022   */\n      0x20\n        /* \"#utility.yul\":4009:4018   */\n      dup3\n        /* \"#utility.yul\":4005:4023   */\n      add\n        /* \"#utility.yul\":3997:4023   */\n      swap1\n      pop\n        /* \"#utility.yul\":4033:4104   */\n      tag_136\n        /* \"#utility.yul\":4101:4102   */\n      0x00\n        /* \"#utility.yul\":4090:4099   */\n      dup4\n        /* \"#utility.yul\":4086:4103   */\n      add\n        /* \"#utility.yul\":4077:4083   */\n      dup5\n        /* \"#utility.yul\":4033:4104   */\n      tag_128\n      jump\t// in\n    tag_136:\n        /* \"#utility.yul\":3889:4111   */\n      swap3\n      swap2\n      pop\n      pop\n      jump\t// out\n        /* \"#utility.yul\":4117:4246   */\n    tag_77:\n        /* \"#utility.yul\":4151:4157   */\n      0x00\n        /* \"#utility.yul\":4178:4198   */\n      tag_138\n      tag_139\n      jump\t// in\n    tag_138:\n        /* \"#utility.yul\":4168:4198   */\n      swap1\n      pop\n        /* \"#utility.yul\":4207:4240   */\n      tag_140\n        /* \"#utility.yul\":4235:4239   */\n      dup3\n        /* \"#utility.yul\":4227:4233   */\n      dup3\n        /* \"#utility.yul\":4207:4240   */\n      tag_141\n      jump\t// in\n    tag_140:\n        /* \"#utility.yul\":4117:4246   */\n      swap2\n      swap1\n      pop\n      jump\t// out\n        /* \"#utility.yul\":4252:4327   */\n    tag_139:\n        /* \"#utility.yul\":4285:4291   */\n      0x00\n        /* \"#utility.yul\":4318:4320   */\n      0x40\n        /* \"#utility.yul\":4312:4321   */\n      mload\n        /* \"#utility.yul\":4302:4321   */\n      swap1\n      pop\n        /* \"#utility.yul\":4252:4327   */\n      swap1\n      jump\t// out\n        /* \"#utility.yul\":4333:4641   */\n    tag_76:\n        /* \"#utility.yul\":4395:4399   */\n      0x00\n        /* \"#utility.yul\":4485:4503   */\n      0xffffffffffffffff\n        /* \"#utility.yul\":4477:4483   */\n      dup3\n        /* \"#utility.yul\":4474:4504   */\n      gt\n        /* \"#utility.yul\":4471:4527   */\n      iszero\n      tag_144\n      jumpi\n        /* \"#utility.yul\":4507:4525   */\n      tag_145\n      tag_146\n      jump\t// in\n    tag_145:\n        /* \"#utility.yul\":4471:4527   */\n    tag_144:\n        /* \"#utility.yul\":4545:4574   */\n      tag_147\n        /* \"#utility.yul\":4567:4573   */\n      dup3\n        /* \"#utility.yul\":4545:4574   */\n      tag_127\n      jump\t// in\n    tag_147:\n        /* \"#utility.yul\":4537:4574   */\n      swap1\n      pop\n        /* \"#utility.yul\":4629:4633   */\n      0x20\n        /* \"#utility.yul\":4623:4627   */\n      dup2\n        /* \"#utility.yul\":4619:4634   */\n      add\n        /* \"#utility.yul\":4611:4634   */\n      swap1\n      pop\n        /* \"#utility.yul\":4333:4641   */\n      swap2\n      swap1\n      pop\n      jump\t// out\n        /* \"#utility.yul\":4647:4746   */\n    tag_121:\n        /* \"#utility.yul\":4699:4705   */\n      0x00\n        /* \"#utility.yul\":4733:4738   */\n      dup2\n        /* \"#utility.yul\":4727:4739   */\n      mload\n        /* \"#utility.yul\":4717:4739   */\n      swap1\n      pop\n        /* \"#utility.yul\":4647:4746   */\n      swap2\n      swap1\n      pop\n      jump\t// out\n        /* \"#utility.yul\":4752:4921   */\n    tag_123:\n        /* \"#utility.yul\":4836:4847   */\n      0x00\n        /* \"#utility.yul\":4870:4876   */\n      dup3\n        /* \"#utility.yul\":4865:4868   */\n      dup3\n        /* \"#utility.yul\":4858:4877   */\n      mstore\n        /* \"#utility.yul\":4910:4914   */\n      0x20\n        /* \"#utility.yul\":4905:4908   */\n      dup3\n        /* \"#utility.yul\":4901:4915   */\n      add\n        /* \"#utility.yul\":4886:4915   */\n      swap1\n      pop\n        /* \"#utility.yul\":4752:4921   */\n      swap3\n      swap2\n      pop\n      pop\n      jump\t// out\n        /* \"#utility.yul\":4927:5023   */\n    tag_150:\n        /* \"#utility.yul\":4964:4971   */\n      0x00\n        /* \"#utility.yul\":4993:5017   */\n      tag_152\n        /* \"#utility.yul\":5011:5016   */\n      dup3\n        /* \"#utility.yul\":4993:5017   */\n      tag_153\n      jump\t// in\n    tag_152:\n        /* \"#utility.yul\":4982:5017   */\n      swap1\n      pop\n        /* \"#utility.yul\":4927:5023   */\n      swap2\n      swap1\n      pop\n      jump\t// out\n        /* \"#utility.yul\":5029:5155   */\n    tag_153:\n        /* \"#utility.yul\":5066:5073   */\n      0x00\n        /* \"#utility.yul\":5106:5148   */\n      0xffffffffffffffffffffffffffffffffffffffff\n        /* \"#utility.yul\":5099:5104   */\n      dup3\n        /* \"#utility.yul\":5095:5149   */\n      and\n        /* \"#utility.yul\":5084:5149   */\n      swap1\n      pop\n        /* \"#utility.yul\":5029:5155   */\n      swap2\n      swap1\n      pop\n      jump\t// out\n        /* \"#utility.yul\":5161:5238   */\n    tag_131:\n        /* \"#utility.yul\":5198:5205   */\n      0x00\n        /* \"#utility.yul\":5227:5232   */\n      dup2\n        /* \"#utility.yul\":5216:5232   */\n      swap1\n      pop\n        /* \"#utility.yul\":5161:5238   */\n      swap2\n      swap1\n      pop\n      jump\t// out\n        /* \"#utility.yul\":5244:5398   */\n    tag_82:\n        /* \"#utility.yul\":5328:5334   */\n      dup3\n        /* \"#utility.yul\":5323:5326   */\n      dup2\n        /* \"#utility.yul\":5318:5321   */\n      dup4\n        /* \"#utility.yul\":5305:5335   */\n      calldatacopy\n        /* \"#utility.yul\":5390:5391   */\n      0x00\n        /* \"#utility.yul\":5381:5387   */\n      dup4\n        /* \"#utility.yul\":5376:5379   */\n      dup4\n        /* \"#utility.yul\":5372:5388   */\n      add\n        /* \"#utility.yul\":5365:5392   */\n      mstore\n        /* \"#utility.yul\":5244:5398   */\n      pop\n      pop\n      pop\n      jump\t// out\n        /* \"#utility.yul\":5404:5711   */\n    tag_125:\n        /* \"#utility.yul\":5472:5473   */\n      0x00\n        /* \"#utility.yul\":5482:5595   */\n    tag_158:\n        /* \"#utility.yul\":5496:5502   */\n      dup4\n        /* \"#utility.yul\":5493:5494   */\n      dup2\n        /* \"#utility.yul\":5490:5503   */\n      lt\n        /* \"#utility.yul\":5482:5595   */\n      iszero\n      tag_160\n      jumpi\n        /* \"#utility.yul\":5581:5582   */\n      dup1\n        /* \"#utility.yul\":5576:5579   */\n      dup3\n        /* \"#utility.yul\":5572:5583   */\n      add\n        /* \"#utility.yul\":5566:5584   */\n      mload\n        /* \"#utility.yul\":5562:5563   */\n      dup2\n        /* \"#utility.yul\":5557:5560   */\n      dup5\n        /* \"#utility.yul\":5553:5564   */\n      add\n        /* \"#utility.yul\":5546:5585   */\n      mstore\n        /* \"#utility.yul\":5518:5520   */\n      0x20\n        /* \"#utility.yul\":5515:5516   */\n      dup2\n        /* \"#utility.yul\":5511:5521   */\n      add\n        /* \"#utility.yul\":5506:5521   */\n      swap1\n      pop\n        /* \"#utility.yul\":5482:5595   */\n      jump(tag_158)\n    tag_160:\n        /* \"#utility.yul\":5613:5619   */\n      dup4\n        /* \"#utility.yul\":5610:5611   */\n      dup2\n        /* \"#utility.yul\":5607:5620   */\n      gt\n        /* \"#utility.yul\":5604:5705   */\n      iszero\n      tag_161\n      jumpi\n        /* \"#utility.yul\":5693:5694   */\n      0x00\n        /* \"#utility.yul\":5684:5690   */\n      dup5\n        /* \"#utility.yul\":5679:5682   */\n      dup5\n        /* \"#utility.yul\":5675:5691   */\n      add\n        /* \"#utility.yul\":5668:5695   */\n      mstore\n        /* \"#utility.yul\":5604:5705   */\n    tag_161:\n        /* \"#utility.yul\":5453:5711   */\n      pop\n        /* \"#utility.yul\":5404:5711   */\n      pop\n      pop\n      pop\n      jump\t// out\n        /* \"#utility.yul\":5717:6037   */\n    tag_41:\n        /* \"#utility.yul\":5761:5767   */\n      0x00\n        /* \"#utility.yul\":5798:5799   */\n      0x02\n        /* \"#utility.yul\":5792:5796   */\n      dup3\n        /* \"#utility.yul\":5788:5800   */\n      div\n        /* \"#utility.yul\":5778:5800   */\n      swap1\n      pop\n        /* \"#utility.yul\":5845:5846   */\n      0x01\n        /* \"#utility.yul\":5839:5843   */\n      dup3\n        /* \"#utility.yul\":5835:5847   */\n      and\n        /* \"#utility.yul\":5866:5884   */\n      dup1\n        /* \"#utility.yul\":5856:5937   */\n      tag_163\n      jumpi\n        /* \"#utility.yul\":5922:5926   */\n      0x7f\n        /* \"#utility.yul\":5914:5920   */\n      dup3\n        /* \"#utility.yul\":5910:5927   */\n      and\n        /* \"#utility.yul\":5900:5927   */\n      swap2\n      pop\n        /* \"#utility.yul\":5856:5937   */\n    tag_163:\n        /* \"#utility.yul\":5984:5986   */\n      0x20\n        /* \"#utility.yul\":5976:5982   */\n      dup3\n        /* \"#utility.yul\":5973:5987   */\n      lt\n        /* \"#utility.yul\":5953:5971   */\n      dup2\n        /* \"#utility.yul\":5950:5988   */\n      eq\n        /* \"#utility.yul\":5947:6031   */\n      iszero\n      tag_164\n      jumpi\n        /* \"#utility.yul\":6003:6021   */\n      tag_165\n      tag_166\n      jump\t// in\n    tag_165:\n        /* \"#utility.yul\":5947:6031   */\n    tag_164:\n        /* \"#utility.yul\":5768:6037   */\n      pop\n        /* \"#utility.yul\":5717:6037   */\n      swap2\n      swap1\n      pop\n      jump\t// out\n        /* \"#utility.yul\":6043:6324   */\n    tag_141:\n        /* \"#utility.yul\":6126:6153   */\n      tag_168\n        /* \"#utility.yul\":6148:6152   */\n      dup3\n        /* \"#utility.yul\":6126:6153   */\n      tag_127\n      jump\t// in\n    tag_168:\n        /* \"#utility.yul\":6118:6124   */\n      dup2\n        /* \"#utility.yul\":6114:6154   */\n      add\n        /* \"#utility.yul\":6256:6262   */\n      dup2\n        /* \"#utility.yul\":6244:6254   */\n      dup2\n        /* \"#utility.yul\":6241:6263   */\n      lt\n        /* \"#utility.yul\":6220:6238   */\n      0xffffffffffffffff\n        /* \"#utility.yul\":6208:6218   */\n      dup3\n        /* \"#utility.yul\":6205:6239   */\n      gt\n        /* \"#utility.yul\":6202:6264   */\n      or\n        /* \"#utility.yul\":6199:6287   */\n      iszero\n      tag_169\n      jumpi\n        /* \"#utility.yul\":6267:6285   */\n      tag_170\n      tag_146\n      jump\t// in\n    tag_170:\n        /* \"#utility.yul\":6199:6287   */\n    tag_169:\n        /* \"#utility.yul\":6307:6317   */\n      dup1\n        /* \"#utility.yul\":6303:6305   */\n      0x40\n        /* \"#utility.yul\":6296:6318   */\n      mstore\n        /* \"#utility.yul\":6086:6324   */\n      pop\n        /* \"#utility.yul\":6043:6324   */\n      pop\n      pop\n      jump\t// out\n        /* \"#utility.yul\":6330:6510   */\n    tag_166:\n        /* \"#utility.yul\":6378:6455   */\n      0x4e487b7100000000000000000000000000000000000000000000000000000000\n        /* \"#utility.yul\":6375:6376   */\n      0x00\n        /* \"#utility.yul\":6368:6456   */\n      mstore\n        /* \"#utility.yul\":6475:6479   */\n      0x22\n        /* \"#utility.yul\":6472:6473   */\n      0x04\n        /* \"#utility.yul\":6465:6480   */\n      mstore\n        /* \"#utility.yul\":6499:6503   */\n      0x24\n        /* \"#utility.yul\":6496:6497   */\n      0x00\n        /* \"#utility.yul\":6489:6504   */\n      revert\n        /* \"#utility.yul\":6516:6696   */\n    tag_146:\n        /* \"#utility.yul\":6564:6641   */\n      0x4e487b7100000000000000000000000000000000000000000000000000000000\n        /* \"#utility.yul\":6561:6562   */\n      0x00\n        /* \"#utility.yul\":6554:6642   */\n      mstore\n        /* \"#utility.yul\":6661:6665   */\n      0x41\n        /* \"#utility.yul\":6658:6659   */\n      0x04\n        /* \"#utility.yul\":6651:6666   */\n      mstore\n        /* \"#utility.yul\":6685:6689   */\n      0x24\n        /* \"#utility.yul\":6682:6683   */\n      0x00\n        /* \"#utility.yul\":6675:6690   */\n      revert\n        /* \"#utility.yul\":6702:6819   */\n    tag_91:\n        /* \"#utility.yul\":6811:6812   */\n      0x00\n        /* \"#utility.yul\":6808:6809   */\n      dup1\n        /* \"#utility.yul\":6801:6813   */\n      revert\n        /* \"#utility.yul\":6825:6942   */\n    tag_80:\n        /* \"#utility.yul\":6934:6935   */\n      0x00\n        /* \"#utility.yul\":6931:6932   */\n      dup1\n        /* \"#utility.yul\":6924:6936   */\n      revert\n        /* \"#utility.yul\":6948:7065   */\n    tag_113:\n        /* \"#utility.yul\":7057:7058   */\n      0x00\n        /* \"#utility.yul\":7054:7055   */\n      dup1\n        /* \"#utility.yul\":7047:7059   */\n      revert\n        /* \"#utility.yul\":7071:7188   */\n    tag_100:\n        /* \"#utility.yul\":7180:7181   */\n      0x00\n        /* \"#utility.yul\":7177:7178   */\n      dup1\n        /* \"#utility.yul\":7170:7182   */\n      revert\n        /* \"#utility.yul\":7194:7296   */\n    tag_127:\n        /* \"#utility.yul\":7235:7241   */\n      0x00\n        /* \"#utility.yul\":7286:7288   */\n      0x1f\n        /* \"#utility.yul\":7282:7289   */\n      not\n        /* \"#utility.yul\":7277:7279   */\n      0x1f\n        /* \"#utility.yul\":7270:7275   */\n      dup4\n        /* \"#utility.yul\":7266:7280   */\n      add\n        /* \"#utility.yul\":7262:7290   */\n      and\n        /* \"#utility.yul\":7252:7290   */\n      swap1\n      pop\n        /* \"#utility.yul\":7194:7296   */\n      swap2\n      swap1\n      pop\n      jump\t// out\n        /* \"#utility.yul\":7302:7424   */\n    tag_86:\n        /* \"#utility.yul\":7375:7399   */\n      tag_179\n        /* \"#utility.yul\":7393:7398   */\n      dup2\n        /* \"#utility.yul\":7375:7399   */\n      tag_150\n      jump\t// in\n    tag_179:\n        /* \"#utility.yul\":7368:7373   */\n      dup2\n        /* \"#utility.yul\":7365:7400   */\n      eq\n        /* \"#utility.yul\":7355:7418   */\n      tag_180\n      jumpi\n        /* \"#utility.yul\":7414:7415   */\n      0x00\n        /* \"#utility.yul\":7411:7412   */\n      dup1\n        /* \"#utility.yul\":7404:7416   */\n      revert\n        /* \"#utility.yul\":7355:7418   */\n    tag_180:\n        /* \"#utility.yul\":7302:7424   */\n      pop\n      jump\t// out\n        /* \"#utility.yul\":7430:7552   */\n    tag_96:\n        /* \"#utility.yul\":7503:7527   */\n      tag_182\n        /* \"#utility.yul\":7521:7526   */\n      dup2\n        /* \"#utility.yul\":7503:7527   */\n      tag_131\n      jump\t// in\n    tag_182:\n        /* \"#utility.yul\":7496:7501   */\n      dup2\n        /* \"#utility.yul\":7493:7528   */\n      eq\n        /* \"#utility.yul\":7483:7546   */\n      tag_183\n      jumpi\n        /* \"#utility.yul\":7542:7543   */\n      0x00\n        /* \"#utility.yul\":7539:7540   */\n      dup1\n        /* \"#utility.yul\":7532:7544   */\n      revert\n        /* \"#utility.yul\":7483:7546   */\n    tag_183:\n        /* \"#utility.yul\":7430:7552   */\n      pop\n      jump\t// out\n\n    auxdata: 0xa264697066735822122046b3982503334da60f24c23728ef17901c1abf8c2b54a46dd9c62f689d2a7bbf64736f6c63430008070033\n}\n",
				"bytecode": {
					"linkReferences": {},
					"object": "608060405234801561001057600080fd5b506109ca806100206000396000f3fe608060405234801561001057600080fd5b506004361061007d5760003560e01c80633825d8281161005b5780633825d828146100ff57806387eb54fe1461011b578063ae22c57d14610137578063f40f48c9146101675761007d565b806311f729901461008257806327cbd529146100b357806329092d0e146100e3575b600080fd5b61009c6004803603810190610097919061062b565b610183565b6040516100aa92919061073e565b60405180910390f35b6100cd60048036038101906100c891906105fe565b6102c4565b6040516100da9190610775565b60405180910390f35b6100fd60048036038101906100f891906105fe565b6102dc565b005b6101196004803603810190610114919061062b565b610321565b005b6101356004803603810190610130919061066b565b610368565b005b610151600480360381019061014c91906105fe565b61040f565b60405161015e9190610775565b60405180910390f35b610181600480360381019061017c919061066b565b610457565b005b6002602052816000526040600020602052806000526040600020600091509150508060000180546101b390610880565b80601f01602080910402602001604051908101604052809291908181526020018280546101df90610880565b801561022c5780601f106102015761010080835404028352916020019161022c565b820191906000526020600020905b81548152906001019060200180831161020f57829003601f168201915b50505050509080600101805461024190610880565b80601f016020809104026020016040519081016040528092919081815260200182805461026d90610880565b80156102ba5780601f1061028f576101008083540402835291602001916102ba565b820191906000526020600020905b81548152906001019060200180831161029d57829003601f168201915b5050505050905082565b60006020528060005260406000206000915090505481565b6000808273ffffffffffffffffffffffffffffffffffffffff1673ffffffffffffffffffffffffffffffffffffffff1681526020019081526020016000206000905550565b806000808473ffffffffffffffffffffffffffffffffffffffff1673ffffffffffffffffffffffffffffffffffffffff168152602001908152602001600020819055505050565b604051806040016040528083815260200182815250600260003373ffffffffffffffffffffffffffffffffffffffff1673ffffffffffffffffffffffffffffffffffffffff168152602001908152602001600020600085815260200190815260200160002060008201518160000190805190602001906103e99291906104c1565b5060208201518160010190805190602001906104069291906104c1565b50905050505050565b60008060008373ffffffffffffffffffffffffffffffffffffffff1673ffffffffffffffffffffffffffffffffffffffff168152602001908152602001600020549050919050565b60405180604001604052808381526020018281525060016000858152602001908152602001600020600082015181600001908051906020019061049b9291906104c1565b5060208201518160010190805190602001906104b89291906104c1565b50905050505050565b8280546104cd90610880565b90600052602060002090601f0160209004810192826104ef5760008555610536565b82601f1061050857805160ff1916838001178555610536565b82800160010185558215610536579182015b8281111561053557825182559160200191906001019061051a565b5b5090506105439190610547565b5090565b5b80821115610560576000816000905550600101610548565b5090565b6000610577610572846107b5565b610790565b90508281526020810184848401111561059357610592610946565b5b61059e84828561083e565b509392505050565b6000813590506105b581610966565b92915050565b600082601f8301126105d0576105cf610941565b5b81356105e0848260208601610564565b91505092915050565b6000813590506105f88161097d565b92915050565b60006020828403121561061457610613610950565b5b6000610622848285016105a6565b91505092915050565b6000806040838503121561064257610641610950565b5b6000610650858286016105a6565b9250506020610661858286016105e9565b9150509250929050565b60008060006060848603121561068457610683610950565b5b6000610692868287016105e9565b935050602084013567ffffffffffffffff8111156106b3576106b261094b565b5b6106bf868287016105bb565b925050604084013567ffffffffffffffff8111156106e0576106df61094b565b5b6106ec868287016105bb565b9150509250925092565b6000610701826107e6565b61070b81856107f1565b935061071b81856020860161084d565b61072481610955565b840191505092915050565b61073881610834565b82525050565b6000604082019050818103600083015261075881856106f6565b9050818103602083015261076c81846106f6565b90509392505050565b600060208201905061078a600083018461072f565b92915050565b600061079a6107ab565b90506107a682826108b2565b919050565b6000604051905090565b600067ffffffffffffffff8211156107d0576107cf610912565b5b6107d982610955565b9050602081019050919050565b600081519050919050565b600082825260208201905092915050565b600061080d82610814565b9050919050565b600073ffffffffffffffffffffffffffffffffffffffff82169050919050565b6000819050919050565b82818337600083830152505050565b60005b8381101561086b578082015181840152602081019050610850565b8381111561087a576000848401525b50505050565b6000600282049050600182168061089857607f821691505b602082108114156108ac576108ab6108e3565b5b50919050565b6108bb82610955565b810181811067ffffffffffffffff821117156108da576108d9610912565b5b80604052505050565b7f4e487b7100000000000000000000000000000000000000000000000000000000600052602260045260246000fd5b7f4e487b7100000000000000000000000000000000000000000000000000000000600052604160045260246000fd5b600080fd5b600080fd5b600080fd5b600080fd5b6000601f19601f8301169050919050565b61096f81610802565b811461097a57600080fd5b50565b61098681610834565b811461099157600080fd5b5056fea264697066735822122046b3982503334da60f24c23728ef17901c1abf8c2b54a46dd9c62f689d2a7bbf64736f6c63430008070033",
					"opcodes": "PUSH1 0x80 PUSH1 0x40 MSTORE CALLVALUE DUP1 ISZERO PUSH2 0x10 JUMPI PUSH1 0x0 DUP1 REVERT JUMPDEST POP PUSH2 0x9CA DUP1 PUSH2 0x20 PUSH1 0x0 CODECOPY PUSH1 0x0 RETURN INVALID PUSH1 0x80 PUSH1 0x40 MSTORE CALLVALUE DUP1 ISZERO PUSH2 0x10 JUMPI PUSH1 0x0 DUP1 REVERT JUMPDEST POP PUSH1 0x4 CALLDATASIZE LT PUSH2 0x7D JUMPI PUSH1 0x0 CALLDATALOAD PUSH1 0xE0 SHR DUP1 PUSH4 0x3825D828 GT PUSH2 0x5B JUMPI DUP1 PUSH4 0x3825D828 EQ PUSH2 0xFF JUMPI DUP1 PUSH4 0x87EB54FE EQ PUSH2 0x11B JUMPI DUP1 PUSH4 0xAE22C57D EQ PUSH2 0x137 JUMPI DUP1 PUSH4 0xF40F48C9 EQ PUSH2 0x167 JUMPI PUSH2 0x7D JUMP JUMPDEST DUP1 PUSH4 0x11F72990 EQ PUSH2 0x82 JUMPI DUP1 PUSH4 0x27CBD529 EQ PUSH2 0xB3 JUMPI DUP1 PUSH4 0x29092D0E EQ PUSH2 0xE3 JUMPI JUMPDEST PUSH1 0x0 DUP1 REVERT JUMPDEST PUSH2 0x9C PUSH1 0x4 DUP1 CALLDATASIZE SUB DUP2 ADD SWAP1 PUSH2 0x97 SWAP2 SWAP1 PUSH2 0x62B JUMP JUMPDEST PUSH2 0x183 JUMP JUMPDEST PUSH1 0x40 MLOAD PUSH2 0xAA SWAP3 SWAP2 SWAP1 PUSH2 0x73E JUMP JUMPDEST PUSH1 0x40 MLOAD DUP1 SWAP2 SUB SWAP1 RETURN JUMPDEST PUSH2 0xCD PUSH1 0x4 DUP1 CALLDATASIZE SUB DUP2 ADD SWAP1 PUSH2 0xC8 SWAP2 SWAP1 PUSH2 0x5FE JUMP JUMPDEST PUSH2 0x2C4 JUMP JUMPDEST PUSH1 0x40 MLOAD PUSH2 0xDA SWAP2 SWAP1 PUSH2 0x775 JUMP JUMPDEST PUSH1 0x40 MLOAD DUP1 SWAP2 SUB SWAP1 RETURN JUMPDEST PUSH2 0xFD PUSH1 0x4 DUP1 CALLDATASIZE SUB DUP2 ADD SWAP1 PUSH2 0xF8 SWAP2 SWAP1 PUSH2 0x5FE JUMP JUMPDEST PUSH2 0x2DC JUMP JUMPDEST STOP JUMPDEST PUSH2 0x119 PUSH1 0x4 DUP1 CALLDATASIZE SUB DUP2 ADD SWAP1 PUSH2 0x114 SWAP2 SWAP1 PUSH2 0x62B JUMP JUMPDEST PUSH2 0x321 JUMP JUMPDEST STOP JUMPDEST PUSH2 0x135 PUSH1 0x4 DUP1 CALLDATASIZE SUB DUP2 ADD SWAP1 PUSH2 0x130 SWAP2 SWAP1 PUSH2 0x66B JUMP JUMPDEST PUSH2 0x368 JUMP JUMPDEST STOP JUMPDEST PUSH2 0x151 PUSH1 0x4 DUP1 CALLDATASIZE SUB DUP2 ADD SWAP1 PUSH2 0x14C SWAP2 SWAP1 PUSH2 0x5FE JUMP JUMPDEST PUSH2 0x40F JUMP JUMPDEST PUSH1 0x40 MLOAD PUSH2 0x15E SWAP2 SWAP1 PUSH2 0x775 JUMP JUMPDEST PUSH1 0x40 MLOAD DUP1 SWAP2 SUB SWAP1 RETURN JUMPDEST PUSH2 0x181 PUSH1 0x4 DUP1 CALLDATASIZE SUB DUP2 ADD SWAP1 PUSH2 0x17C SWAP2 SWAP1 PUSH2 0x66B JUMP JUMPDEST PUSH2 0x457 JUMP JUMPDEST STOP JUMPDEST PUSH1 0x2 PUSH1 0x20 MSTORE DUP2 PUSH1 0x0 MSTORE PUSH1 0x40 PUSH1 0x0 KECCAK256 PUSH1 0x20 MSTORE DUP1 PUSH1 0x0 MSTORE PUSH1 0x40 PUSH1 0x0 KECCAK256 PUSH1 0x0 SWAP2 POP SWAP2 POP POP DUP1 PUSH1 0x0 ADD DUP1 SLOAD PUSH2 0x1B3 SWAP1 PUSH2 0x880 JUMP JUMPDEST DUP1 PUSH1 0x1F ADD PUSH1 0x20 DUP1 SWAP2 DIV MUL PUSH1 0x20 ADD PUSH1 0x40 MLOAD SWAP1 DUP2 ADD PUSH1 0x40 MSTORE DUP1 SWAP3 SWAP2 SWAP1 DUP2 DUP2 MSTORE PUSH1 0x20 ADD DUP3 DUP1 SLOAD PUSH2 0x1DF SWAP1 PUSH2 0x880 JUMP JUMPDEST DUP1 ISZERO PUSH2 0x22C JUMPI DUP1 PUSH1 0x1F LT PUSH2 0x201 JUMPI PUSH2 0x100 DUP1 DUP4 SLOAD DIV MUL DUP4 MSTORE SWAP2 PUSH1 0x20 ADD SWAP2 PUSH2 0x22C JUMP JUMPDEST DUP3 ADD SWAP2 SWAP1 PUSH1 0x0 MSTORE PUSH1 0x20 PUSH1 0x0 KECCAK256 SWAP1 JUMPDEST DUP2 SLOAD DUP2 MSTORE SWAP1 PUSH1 0x1 ADD SWAP1 PUSH1 0x20 ADD DUP1 DUP4 GT PUSH2 0x20F JUMPI DUP3 SWAP1 SUB PUSH1 0x1F AND DUP3 ADD SWAP2 JUMPDEST POP POP POP POP POP SWAP1 DUP1 PUSH1 0x1 ADD DUP1 SLOAD PUSH2 0x241 SWAP1 PUSH2 0x880 JUMP JUMPDEST DUP1 PUSH1 0x1F ADD PUSH1 0x20 DUP1 SWAP2 DIV MUL PUSH1 0x20 ADD PUSH1 0x40 MLOAD SWAP1 DUP2 ADD PUSH1 0x40 MSTORE DUP1 SWAP3 SWAP2 SWAP1 DUP2 DUP2 MSTORE PUSH1 0x20 ADD DUP3 DUP1 SLOAD PUSH2 0x26D SWAP1 PUSH2 0x880 JUMP JUMPDEST DUP1 ISZERO PUSH2 0x2BA JUMPI DUP1 PUSH1 0x1F LT PUSH2 0x28F JUMPI PUSH2 0x100 DUP1 DUP4 SLOAD DIV MUL DUP4 MSTORE SWAP2 PUSH1 0x20 ADD SWAP2 PUSH2 0x2BA JUMP JUMPDEST DUP3 ADD SWAP2 SWAP1 PUSH1 0x0 MSTORE PUSH1 0x20 PUSH1 0x0 KECCAK256 SWAP1 JUMPDEST DUP2 SLOAD DUP2 MSTORE SWAP1 PUSH1 0x1 ADD SWAP1 PUSH1 0x20 ADD DUP1 DUP4 GT PUSH2 0x29D JUMPI DUP3 SWAP1 SUB PUSH1 0x1F AND DUP3 ADD SWAP2 JUMPDEST POP POP POP POP POP SWAP1 POP DUP3 JUMP JUMPDEST PUSH1 0x0 PUSH1 0x20 MSTORE DUP1 PUSH1 0x0 MSTORE PUSH1 0x40 PUSH1 0x0 KECCAK256 PUSH1 0x0 SWAP2 POP SWAP1 POP SLOAD DUP2 JUMP JUMPDEST PUSH1 0x0 DUP1 DUP3 PUSH20 0xFFFFFFFFFFFFFFFFFFFFFFFFFFFFFFFFFFFFFFFF AND PUSH20 0xFFFFFFFFFFFFFFFFFFFFFFFFFFFFFFFFFFFFFFFF AND DUP2 MSTORE PUSH1 0x20 ADD SWAP1 DUP2 MSTORE PUSH1 0x20 ADD PUSH1 0x0 KECCAK256 PUSH1 0x0 SWAP1 SSTORE POP JUMP JUMPDEST DUP1 PUSH1 0x0 DUP1 DUP5 PUSH20 0xFFFFFFFFFFFFFFFFFFFFFFFFFFFFFFFFFFFFFFFF AND PUSH20 0xFFFFFFFFFFFFFFFFFFFFFFFFFFFFFFFFFFFFFFFF AND DUP2 MSTORE PUSH1 0x20 ADD SWAP1 DUP2 MSTORE PUSH1 0x20 ADD PUSH1 0x0 KECCAK256 DUP2 SWAP1 SSTORE POP POP POP JUMP JUMPDEST PUSH1 0x40 MLOAD DUP1 PUSH1 0x40 ADD PUSH1 0x40 MSTORE DUP1 DUP4 DUP2 MSTORE PUSH1 0x20 ADD DUP3 DUP2 MSTORE POP PUSH1 0x2 PUSH1 0x0 CALLER PUSH20 0xFFFFFFFFFFFFFFFFFFFFFFFFFFFFFFFFFFFFFFFF AND PUSH20 0xFFFFFFFFFFFFFFFFFFFFFFFFFFFFFFFFFFFFFFFF AND DUP2 MSTORE PUSH1 0x20 ADD SWAP1 DUP2 MSTORE PUSH1 0x20 ADD PUSH1 0x0 KECCAK256 PUSH1 0x0 DUP6 DUP2 MSTORE PUSH1 0x20 ADD SWAP1 DUP2 MSTORE PUSH1 0x20 ADD PUSH1 0x0 KECCAK256 PUSH1 0x0 DUP3 ADD MLOAD DUP2 PUSH1 0x0 ADD SWAP1 DUP1 MLOAD SWAP1 PUSH1 0x20 ADD SWAP1 PUSH2 0x3E9 SWAP3 SWAP2 SWAP1 PUSH2 0x4C1 JUMP JUMPDEST POP PUSH1 0x20 DUP3 ADD MLOAD DUP2 PUSH1 0x1 ADD SWAP1 DUP1 MLOAD SWAP1 PUSH1 0x20 ADD SWAP1 PUSH2 0x406 SWAP3 SWAP2 SWAP1 PUSH2 0x4C1 JUMP JUMPDEST POP SWAP1 POP POP POP POP POP JUMP JUMPDEST PUSH1 0x0 DUP1 PUSH1 0x0 DUP4 PUSH20 0xFFFFFFFFFFFFFFFFFFFFFFFFFFFFFFFFFFFFFFFF AND PUSH20 0xFFFFFFFFFFFFFFFFFFFFFFFFFFFFFFFFFFFFFFFF AND DUP2 MSTORE PUSH1 0x20 ADD SWAP1 DUP2 MSTORE PUSH1 0x20 ADD PUSH1 0x0 KECCAK256 SLOAD SWAP1 POP SWAP2 SWAP1 POP JUMP JUMPDEST PUSH1 0x40 MLOAD DUP1 PUSH1 0x40 ADD PUSH1 0x40 MSTORE DUP1 DUP4 DUP2 MSTORE PUSH1 0x20 ADD DUP3 DUP2 MSTORE POP PUSH1 0x1 PUSH1 0x0 DUP6 DUP2 MSTORE PUSH1 0x20 ADD SWAP1 DUP2 MSTORE PUSH1 0x20 ADD PUSH1 0x0 KECCAK256 PUSH1 0x0 DUP3 ADD MLOAD DUP2 PUSH1 0x0 ADD SWAP1 DUP1 MLOAD SWAP1 PUSH1 0x20 ADD SWAP1 PUSH2 0x49B SWAP3 SWAP2 SWAP1 PUSH2 0x4C1 JUMP JUMPDEST POP PUSH1 0x20 DUP3 ADD MLOAD DUP2 PUSH1 0x1 ADD SWAP1 DUP1 MLOAD SWAP1 PUSH1 0x20 ADD SWAP1 PUSH2 0x4B8 SWAP3 SWAP2 SWAP1 PUSH2 0x4C1 JUMP JUMPDEST POP SWAP1 POP POP POP POP POP JUMP JUMPDEST DUP3 DUP1 SLOAD PUSH2 0x4CD SWAP1 PUSH2 0x880 JUMP JUMPDEST SWAP1 PUSH1 0x0 MSTORE PUSH1 0x20 PUSH1 0x0 KECCAK256 SWAP1 PUSH1 0x1F ADD PUSH1 0x20 SWAP1 DIV DUP2 ADD SWAP3 DUP3 PUSH2 0x4EF JUMPI PUSH1 0x0 DUP6 SSTORE PUSH2 0x536 JUMP JUMPDEST DUP3 PUSH1 0x1F LT PUSH2 0x508 JUMPI DUP1 MLOAD PUSH1 0xFF NOT AND DUP4 DUP1 ADD OR DUP6 SSTORE PUSH2 0x536 JUMP JUMPDEST DUP3 DUP1 ADD PUSH1 0x1 ADD DUP6 SSTORE DUP3 ISZERO PUSH2 0x536 JUMPI SWAP2 DUP3 ADD JUMPDEST DUP3 DUP2 GT ISZERO PUSH2 0x535 JUMPI DUP3 MLOAD DUP3 SSTORE SWAP2 PUSH1 0x20 ADD SWAP2 SWAP1 PUSH1 0x1 ADD SWAP1 PUSH2 0x51A JUMP JUMPDEST JUMPDEST POP SWAP1 POP PUSH2 0x543 SWAP2 SWAP1 PUSH2 0x547 JUMP JUMPDEST POP SWAP1 JUMP JUMPDEST JUMPDEST DUP1 DUP3 GT ISZERO PUSH2 0x560 JUMPI PUSH1 0x0 DUP2 PUSH1 0x0 SWAP1 SSTORE POP PUSH1 0x1 ADD PUSH2 0x548 JUMP JUMPDEST POP SWAP1 JUMP JUMPDEST PUSH1 0x0 PUSH2 0x577 PUSH2 0x572 DUP5 PUSH2 0x7B5 JUMP JUMPDEST PUSH2 0x790 JUMP JUMPDEST SWAP1 POP DUP3 DUP2 MSTORE PUSH1 0x20 DUP2 ADD DUP5 DUP5 DUP5 ADD GT ISZERO PUSH2 0x593 JUMPI PUSH2 0x592 PUSH2 0x946 JUMP JUMPDEST JUMPDEST PUSH2 0x59E DUP5 DUP3 DUP6 PUSH2 0x83E JUMP JUMPDEST POP SWAP4 SWAP3 POP POP POP JUMP JUMPDEST PUSH1 0x0 DUP2 CALLDATALOAD SWAP1 POP PUSH2 0x5B5 DUP2 PUSH2 0x966 JUMP JUMPDEST SWAP3 SWAP2 POP POP JUMP JUMPDEST PUSH1 0x0 DUP3 PUSH1 0x1F DUP4 ADD SLT PUSH2 0x5D0 JUMPI PUSH2 0x5CF PUSH2 0x941 JUMP JUMPDEST JUMPDEST DUP2 CALLDATALOAD PUSH2 0x5E0 DUP5 DUP3 PUSH1 0x20 DUP7 ADD PUSH2 0x564 JUMP JUMPDEST SWAP2 POP POP SWAP3 SWAP2 POP POP JUMP JUMPDEST PUSH1 0x0 DUP2 CALLDATALOAD SWAP1 POP PUSH2 0x5F8 DUP2 PUSH2 0x97D JUMP JUMPDEST SWAP3 SWAP2 POP POP JUMP JUMPDEST PUSH1 0x0 PUSH1 0x20 DUP3 DUP5 SUB SLT ISZERO PUSH2 0x614 JUMPI PUSH2 0x613 PUSH2 0x950 JUMP JUMPDEST JUMPDEST PUSH1 0x0 PUSH2 0x622 DUP5 DUP3 DUP6 ADD PUSH2 0x5A6 JUMP JUMPDEST SWAP2 POP POP SWAP3 SWAP2 POP POP JUMP JUMPDEST PUSH1 0x0 DUP1 PUSH1 0x40 DUP4 DUP6 SUB SLT ISZERO PUSH2 0x642 JUMPI PUSH2 0x641 PUSH2 0x950 JUMP JUMPDEST JUMPDEST PUSH1 0x0 PUSH2 0x650 DUP6 DUP3 DUP7 ADD PUSH2 0x5A6 JUMP JUMPDEST SWAP3 POP POP PUSH1 0x20 PUSH2 0x661 DUP6 DUP3 DUP7 ADD PUSH2 0x5E9 JUMP JUMPDEST SWAP2 POP POP SWAP3 POP SWAP3 SWAP1 POP JUMP JUMPDEST PUSH1 0x0 DUP1 PUSH1 0x0 PUSH1 0x60 DUP5 DUP7 SUB SLT ISZERO PUSH2 0x684 JUMPI PUSH2 0x683 PUSH2 0x950 JUMP JUMPDEST JUMPDEST PUSH1 0x0 PUSH2 0x692 DUP7 DUP3 DUP8 ADD PUSH2 0x5E9 JUMP JUMPDEST SWAP4 POP POP PUSH1 0x20 DUP5 ADD CALLDATALOAD PUSH8 0xFFFFFFFFFFFFFFFF DUP2 GT ISZERO PUSH2 0x6B3 JUMPI PUSH2 0x6B2 PUSH2 0x94B JUMP JUMPDEST JUMPDEST PUSH2 0x6BF DUP7 DUP3 DUP8 ADD PUSH2 0x5BB JUMP JUMPDEST SWAP3 POP POP PUSH1 0x40 DUP5 ADD CALLDATALOAD PUSH8 0xFFFFFFFFFFFFFFFF DUP2 GT ISZERO PUSH2 0x6E0 JUMPI PUSH2 0x6DF PUSH2 0x94B JUMP JUMPDEST JUMPDEST PUSH2 0x6EC DUP7 DUP3 DUP8 ADD PUSH2 0x5BB JUMP JUMPDEST SWAP2 POP POP SWAP3 POP SWAP3 POP SWAP3 JUMP JUMPDEST PUSH1 0x0 PUSH2 0x701 DUP3 PUSH2 0x7E6 JUMP JUMPDEST PUSH2 0x70B DUP2 DUP6 PUSH2 0x7F1 JUMP JUMPDEST SWAP4 POP PUSH2 0x71B DUP2 DUP6 PUSH1 0x20 DUP7 ADD PUSH2 0x84D JUMP JUMPDEST PUSH2 0x724 DUP2 PUSH2 0x955 JUMP JUMPDEST DUP5 ADD SWAP2 POP POP SWAP3 SWAP2 POP POP JUMP JUMPDEST PUSH2 0x738 DUP2 PUSH2 0x834 JUMP JUMPDEST DUP3 MSTORE POP POP JUMP JUMPDEST PUSH1 0x0 PUSH1 0x40 DUP3 ADD SWAP1 POP DUP2 DUP2 SUB PUSH1 0x0 DUP4 ADD MSTORE PUSH2 0x758 DUP2 DUP6 PUSH2 0x6F6 JUMP JUMPDEST SWAP1 POP DUP2 DUP2 SUB PUSH1 0x20 DUP4 ADD MSTORE PUSH2 0x76C DUP2 DUP5 PUSH2 0x6F6 JUMP JUMPDEST SWAP1 POP SWAP4 SWAP3 POP POP POP JUMP JUMPDEST PUSH1 0x0 PUSH1 0x20 DUP3 ADD SWAP1 POP PUSH2 0x78A PUSH1 0x0 DUP4 ADD DUP5 PUSH2 0x72F JUMP JUMPDEST SWAP3 SWAP2 POP POP JUMP JUMPDEST PUSH1 0x0 PUSH2 0x79A PUSH2 0x7AB JUMP JUMPDEST SWAP1 POP PUSH2 0x7A6 DUP3 DUP3 PUSH2 0x8B2 JUMP JUMPDEST SWAP2 SWAP1 POP JUMP JUMPDEST PUSH1 0x0 PUSH1 0x40 MLOAD SWAP1 POP SWAP1 JUMP JUMPDEST PUSH1 0x0 PUSH8 0xFFFFFFFFFFFFFFFF DUP3 GT ISZERO PUSH2 0x7D0 JUMPI PUSH2 0x7CF PUSH2 0x912 JUMP JUMPDEST JUMPDEST PUSH2 0x7D9 DUP3 PUSH2 0x955 JUMP JUMPDEST SWAP1 POP PUSH1 0x20 DUP2 ADD SWAP1 POP SWAP2 SWAP1 POP JUMP JUMPDEST PUSH1 0x0 DUP2 MLOAD SWAP1 POP SWAP2 SWAP1 POP JUMP JUMPDEST PUSH1 0x0 DUP3 DUP3 MSTORE PUSH1 0x20 DUP3 ADD SWAP1 POP SWAP3 SWAP2 POP POP JUMP JUMPDEST PUSH1 0x0 PUSH2 0x80D DUP3 PUSH2 0x814 JUMP JUMPDEST SWAP1 POP SWAP2 SWAP1 POP JUMP JUMPDEST PUSH1 0x0 PUSH20 0xFFFFFFFFFFFFFFFFFFFFFFFFFFFFFFFFFFFFFFFF DUP3 AND SWAP1 POP SWAP2 SWAP1 POP JUMP JUMPDEST PUSH1 0x0 DUP2 SWAP1 POP SWAP2 SWAP1 POP JUMP JUMPDEST DUP3 DUP2 DUP4 CALLDATACOPY PUSH1 0x0 DUP4 DUP4 ADD MSTORE POP POP POP JUMP JUMPDEST PUSH1 0x0 JUMPDEST DUP4 DUP2 LT ISZERO PUSH2 0x86B JUMPI DUP1 DUP3 ADD MLOAD DUP2 DUP5 ADD MSTORE PUSH1 0x20 DUP2 ADD SWAP1 POP PUSH2 0x850 JUMP JUMPDEST DUP4 DUP2 GT ISZERO PUSH2 0x87A JUMPI PUSH1 0x0 DUP5 DUP5 ADD MSTORE JUMPDEST POP POP POP POP JUMP JUMPDEST PUSH1 0x0 PUSH1 0x2 DUP3 DIV SWAP1 POP PUSH1 0x1 DUP3 AND DUP1 PUSH2 0x898 JUMPI PUSH1 0x7F DUP3 AND SWAP2 POP JUMPDEST PUSH1 0x20 DUP3 LT DUP2 EQ ISZERO PUSH2 0x8AC JUMPI PUSH2 0x8AB PUSH2 0x8E3 JUMP JUMPDEST JUMPDEST POP SWAP2 SWAP1 POP JUMP JUMPDEST PUSH2 0x8BB DUP3 PUSH2 0x955 JUMP JUMPDEST DUP2 ADD DUP2 DUP2 LT PUSH8 0xFFFFFFFFFFFFFFFF DUP3 GT OR ISZERO PUSH2 0x8DA JUMPI PUSH2 0x8D9 PUSH2 0x912 JUMP JUMPDEST JUMPDEST DUP1 PUSH1 0x40 MSTORE POP POP POP JUMP JUMPDEST PUSH32 0x4E487B7100000000000000000000000000000000000000000000000000000000 PUSH1 0x0 MSTORE PUSH1 0x22 PUSH1 0x4 MSTORE PUSH1 0x24 PUSH1 0x0 REVERT JUMPDEST PUSH32 0x4E487B7100000000000000000000000000000000000000000000000000000000 PUSH1 0x0 MSTORE PUSH1 0x41 PUSH1 0x4 MSTORE PUSH1 0x24 PUSH1 0x0 REVERT JUMPDEST PUSH1 0x0 DUP1 REVERT JUMPDEST PUSH1 0x0 DUP1 REVERT JUMPDEST PUSH1 0x0 DUP1 REVERT JUMPDEST PUSH1 0x0 DUP1 REVERT JUMPDEST PUSH1 0x0 PUSH1 0x1F NOT PUSH1 0x1F DUP4 ADD AND SWAP1 POP SWAP2 SWAP1 POP JUMP JUMPDEST PUSH2 0x96F DUP2 PUSH2 0x802 JUMP JUMPDEST DUP2 EQ PUSH2 0x97A JUMPI PUSH1 0x0 DUP1 REVERT JUMPDEST POP JUMP JUMPDEST PUSH2 0x986 DUP2 PUSH2 0x834 JUMP JUMPDEST DUP2 EQ PUSH2 0x991 JUMPI PUSH1 0x0 DUP1 REVERT JUMPDEST POP JUMP INVALID LOG2 PUSH5 0x6970667358 0x22 SLT KECCAK256 CHAINID 0xB3 SWAP9 0x25 SUB CALLER 0x4D 0xA6 0xF 0x24 0xC2 CALLDATACOPY 0x28 0xEF OR SWAP1 SHR BYTE 0xBF DUP13 0x2B SLOAD LOG4 PUSH14 0xD9C62F689D2A7BBF64736F6C6343 STOP ADDMOD SMOD STOP CALLER "
				},
				"gasEstimates": {
					"creation": {
						"codeDepositCost": "501200",
						"executionCost": "537",
						"totalCost": "501737"
					},
					"external": {
						"addMovie(uint256,string,string)": "infinite",
						"addMyMovie(uint256,string,string)": "infinite",
						"getAddress(address)": "2885",
						"myMap(address)": "2837",
						"myMovie(address,uint256)": "infinite",
						"remove(address)": "5599",
						"set(address,uint256)": "22832"
					}
				},
				"methodIdentifiers": {
					"addMovie(uint256,string,string)": "f40f48c9",
					"addMyMovie(uint256,string,string)": "87eb54fe",
					"getAddress(address)": "ae22c57d",
					"myMap(address)": "27cbd529",
					"myMovie(address,uint256)": "11f72990",
					"remove(address)": "29092d0e",
					"set(address,uint256)": "3825d828"
				}
			},
			"storageLayout": {
				"storage": [
					{
						"astId": 5,
						"contract": "mapping-contract.sol:learnMapping",
						"label": "myMap",
						"offset": 0,
						"slot": "0",
						"type": "t_mapping(t_address,t_uint256)"
					},
					{
						"astId": 47,
						"contract": "mapping-contract.sol:learnMapping",
						"label": "movie",
						"offset": 0,
						"slot": "1",
						"type": "t_mapping(t_uint256,t_struct(Movie)59_storage)"
					},
					{
						"astId": 54,
						"contract": "mapping-contract.sol:learnMapping",
						"label": "myMovie",
						"offset": 0,
						"slot": "2",
						"type": "t_mapping(t_address,t_mapping(t_uint256,t_struct(Movie)59_storage))"
					}
				],
				"types": {
					"t_address": {
						"encoding": "inplace",
						"label": "address",
						"numberOfBytes": "20"
					},
					"t_mapping(t_address,t_mapping(t_uint256,t_struct(Movie)59_storage))": {
						"encoding": "mapping",
						"key": "t_address",
						"label": "mapping(address => mapping(uint256 => struct learnMapping.Movie))",
						"numberOfBytes": "32",
						"value": "t_mapping(t_uint256,t_struct(Movie)59_storage)"
					},
					"t_mapping(t_address,t_uint256)": {
						"encoding": "mapping",
						"key": "t_address",
						"label": "mapping(address => uint256)",
						"numberOfBytes": "32",
						"value": "t_uint256"
					},
					"t_mapping(t_uint256,t_struct(Movie)59_storage)": {
						"encoding": "mapping",
						"key": "t_uint256",
						"label": "mapping(uint256 => struct learnMapping.Movie)",
						"numberOfBytes": "32",
						"value": "t_struct(Movie)59_storage"
					},
					"t_string_storage": {
						"encoding": "bytes",
						"label": "string",
						"numberOfBytes": "32"
					},
					"t_struct(Movie)59_storage": {
						"encoding": "inplace",
						"label": "struct learnMapping.Movie",
						"members": [
							{
								"astId": 56,
								"contract": "mapping-contract.sol:learnMapping",
								"label": "title",
								"offset": 0,
								"slot": "0",
								"type": "t_string_storage"
							},
							{
								"astId": 58,
								"contract": "mapping-contract.sol:learnMapping",
								"label": "director",
								"offset": 0,
								"slot": "1",
								"type": "t_string_storage"
							}
						],
						"numberOfBytes": "64"
					},
					"t_uint256": {
						"encoding": "inplace",
						"label": "uint256",
						"numberOfBytes": "32"
					}
				}
			},
			"userdoc": {
				"kind": "user",
				"methods": {},
				"version": 1
			}
		}
	}
}